:100000000C942A000C943F000C943F000C943F0089
:100010000C943F000C943F000C943F000C943F0064
:100020000C943F000C943F000C943F000C943F0054
:100030000C943F000C943F000C943F000C943F0044
:100040000C943F000C943F000C943F000C943F0034
:100050000C943F0011241FBECFE5D4E0DEBFCDBF1E
:1000600010E0A0E6B0E0EAE5F4E002C005900D92F1
:10007000AC38B107D9F70E94F8010C942B020C940C
:100080000000EF92FF920F931F93CF93DF938C01A9
:100090007B01C9E0D0E014C0E0FE08C068E6F801CA
:1000A000EC0FFD1F80810E94020107C06CE6F80181
:1000B000EC0FFD1F80810E940201F594E7942197C7
:1000C000DD2354F768E6F80182850E940201F801F9
:1000D00083810E949101F80183818130E1F36CE614
:1000E00082850E940201C0E0D0E008C0F801EC0F58
:1000F000FD1F6CE680810E9402012196C930D10566
:10010000ACF3DF91CF911F910F91FF90EF90089585
:10011000CF93DF93EC0168E370E00E94410061E05F
:1001200070E0CE010E94410062E070E0CE010E94CA
:10013000410066E070E0CE010E9441006FE070E097
:10014000CE010E944100DF91CF910895EF92FF927E
:100150001F93CF93DF937C01162F68E6FC0180810B
:100160000E9402016CE6F70181810E940201C9E050
:10017000D0E013C010FF08C068E6F701EC0FFD1FC8
:1001800080810E94020107C06CE6F701EC0FFD1FA1
:1001900080810E94020116952197C230D10554F743
:1001A00068E6F70182850E94020183ED90E30197E2
:1001B000F1F700C000006CE6F70182850E940201A1
:1001C000DF91CF911F91FF90EF900895EF92FF92F2
:1001D0000F931F93CF93DF937C018B01C0E0D0E09E
:1001E00004C0C7010E94A6002196F801EC0FFD1F74
:1001F00060816111F6CFDF91CF911F910F91FF9038
:10020000EF9008954AE050E087C09A0142315105CD
:10021000E8F4E82FF0E04E175F07C1F44A502AB324
:1002200081E090E002C0880F991F4A95E2F7282BE1
:100230002ABB683611F0683421F49BB3892B8BBB41
:1002400008959BB3809589238BBB0895F90172971C
:100250003A97E8F4E82FF0E04E175F07C1F44451F5
:1002600027B381E090E002C0880F991F4A95E2F71A
:10027000282B27BB683611F0683421F498B3892BFA
:1002800088BB089598B38095892388BB0895F901A8
:100290007C973A97E8F4E82FF0E04E175F07C1F437
:1002A0004E5124B381E090E002C0880F991F4A9517
:1002B000E2F7282B24BB683611F0683421F495B39B
:1002C000892B85BB089595B38095892385BB0895B7
:1002D000265231092A303105E8F4282F30E0421740
:1002E0005307C1F4485221B381E090E002C0880F67
:1002F000991F4A95E2F7282B21BB683611F0683424
:1003000021F492B3892B82BB089592B380958923FF
:1003100082BB08954F5F5F4F403351050CF475CF9A
:1003200008954AE050E05FC09A014231510590F4CF
:10033000682F70E04617570769F4E6EFE40F9AB3A9
:1003400061E070E002C0660F771FEA95E2F7609502
:1003500069236ABBB901625171096A30710590F471
:10036000682F70E04617570769F4ECEEE40F97B377
:1003700061E070E002C0660F771FEA95E2F76095D2
:10038000692367BBB9016C5171096A30710590F43A
:10039000682F70E04617570769F4E2EEE40F94B354
:1003A00061E070E002C0660F771FEA95E2F76095A2
:1003B000692364BB265231092A30310590F4282F75
:1003C00030E04217530769F468ED640F91B321E000
:1003D00030E002C0220F331F6A95E2F720952923EF
:1003E00021BB4F5F5F4F403351050CF49DCF089503
:1003F000CF93DF93CDB7DEB72B970FB6F894DEBF60
:100400000FBECDBF8BE0E0E6F0E0DE01119601907B
:100410000D928A95E1F7CE0101960E9488006BE665
:1004200070E0CE0101960E94E60068E170E0CE0126
:1004300001960E9441006EE070E0CE0101960E949C
:1004400041002FE986E891E0215080409040E1F79B
:0A04500000C00000EACFF894FFCFCF
:10045A001E1F1B1A1918171615142057656C656389
:10046A006F6D6520746F204D522E204E6164657247
:0C047A002048616E792041686D656400C7
:00000001FF
